:1000000009C018951895189518951895189518956C
:10001000189518958FE98DBFC0E8E0E84E2EDD27D2
:100020005D2EA89584B7082E877F84BF88E1992725
:1000300081BD91BDEEE3F0E0A0E6B0E088278D93AE
:100040003197E9F76624BB9ABC9AC398C49A84EFA7
:1000500091E00FD0C39AC49884EF91E00AD0F5CF15
:100060003197F1F70895689462F80895E89462F87A
:100070000895EF93FF93EE27E82BE92B31F0ECE2A4
:10008000F1E03197F1F70197D1F7FF91EF910895E2
:00000001FF
